:020000040800F2
:10000000004E0020DD010008AB1A0008B9130008FB
:10001000A91A00089D0F0008212300080000000015
:100020000000000000000000000000004501000882
:10003000C90F000800000000890100081D1F00080A
:10004000F7010008F7010008F7010008F7010008B0
:10005000F7010008F7010008F7010008F7010008A0
:10006000F7010008F7010008F7010008F701000890
:10007000F7010008F7010008F7010008F701000880
:10008000F7010008F7010008F7010008F701000870
:10009000F7010008F7010008F7010008F701000860
:1000A000F7010008F7010008F7010008F701000850
:1000B000F7010008F7010008F7010008F701000840
:1000C000F7010008F7010008F7010008F701000830
:1000D000F7010008DD200008412100084D2100083B
:1000E000F7010008F7010008F7010008F701000810
:1000F000F7010008F7010008F7010008F701000800
:10010000F7010008F7010008F7010008F7010008EF
:10011000F7010008F7010008F7010008F7010008DF
:10012000F7010008F7010008F7010008F7010008CF
:10013000DFF80CD000F028FC00480047D13200085E
:10014000004E0020224B19680868B0E8F00F80F3D9
:100150000988BFF36F8F4FF0000080F311884EF0D5
:100160000D0E70470000000006480068006880F32C
:10017000088862B661B6BFF34F8FBFF36F8F00DFA1
:1001800000BF00BF08ED00E0EFF30980BFF36F8F01
:100190000F4B1A6820E9F00F106008B54FF0BF0050
:1001A00080F31188BFF34F8FBFF36F8F03F0F2FD21
:1001B0004FF0000080F31188BDE808401968086816
:1001C000B0E8F00F80F30988BFF36F8F704700BF6E
:1001D000D0000020EFF305807047000006488047FC
:1001E00006480047FEE7FEE7FEE7FEE7FEE7FEE71C
:1001F000FEE7FEE7FEE7FEE7491F000831010008C1
:1002000040EA01039B0703D009E008C9121F08C098
:10021000042AFAD203E011F8013B00F8013B521E18
:10022000F9D27047D2B201E000F8012B491EFBD28F
:1002300070470022F6E710B513460A4604461946F1
:10024000FFF7F0FF204610BD30B505462A460B46A5
:1002500012F8010B13F8014B08B1A042F8D01CB101
:10026000002802D06D1CF1E7284630BD421C10F872
:10027000011B0029FBD1801A70472DE9FE4F8046F3
:1002800081EA0300C00F0C46009021F0004123F0EA
:100290000045B8EB0200A94105D2404621469046F0
:1002A0001C460B46024623F00040104347D0270D62
:1002B000C7F30A00C3F30A510290401A0190402884
:1002C0006BDAC3F3130040F4801B0098924620B110
:1002D0000023D2EB030A63EB0B0B01985946C0F1E4
:1002E0004002504600F003FA06460D465046594675
:1002F000019A00F00BFA10EB08006141002487EA34
:10030000115284EAE7731A4340D0009A62B3019A0B
:10031000012A4FEA075215DC001B61EB02014FF086
:10032000004202EA0752CDE90042001C41F580116B
:1003300032462B4600F042FA03B0BDE8F08F40464B
:100340002146F9E7001B61EB0201001C41F5801317
:1003500000185B412018A2F5001747EB030140EAA3
:10036000D570B6196D4111E06D084FEA360645EAC1
:10037000C0754FEA0752001B61EB0201001C41F5FA
:10038000801149084FEA30000019514132462B468E
:1003900003B0BDE8F04F00F002BA0098012240001F
:1003A0000023D0EB020263EBE073009821464FEA92
:1003B000E074B8EB000061EB0401E9E783F000436F
:1003C0005BE781F0004158E72DE9FE4F81EA030425
:1003D00004F0004421F0004100944FF0000B23F0A2
:1003E000004350EA01045ED052EA03045BD0C3F339
:1003F0000A54C1F30A552C44A4F2F3340194A0FB2F
:100400000254C1F3130141F48011C3F3130343F405
:10041000801301FB024400FB034E840A970A44EA5E
:10042000815447EA8357A4FB076802958D0A05FBB0
:1004300007854FEA932C04FB0C542705029D4FEAD5
:10044000065847EA1637B5EB08056EEB070C870E22
:10045000920E47EA811742EA8312A7FB0201B6EB2C
:100460000B0164EB00042B0D43EA0C335E1844EBE4
:100470001C50DA465146E7FB0201C5F313044FEA6C
:100480000B3343EA14534FEA0432019C43EA060358
:10049000A4F10C040294009CCDE900B400F08EF9A4
:1004A00003B0BDE8F08F00200146F9E72DE9F04DDB
:1004B00081EA030404F0004B21F0004514464FF09C
:1004C000000A23F0004150EA050220D054EA01025C
:1004D0001DD0C5F30A570246C5F31303C1F3130039
:1004E000C1F30A5640F4801543F48013A7EB0608C5
:1004F000101BD64608F2FD3873EB050002D308F155
:10050000010801E092185B41B8F1000F03DA002006
:100510000146BDE8F08D00204FF480110646844668
:100520000EE0171B73EB050705D3121B63EB0503E6
:1005300006434CEA010C49084FEA300092185B412F
:1005400050EA0107EDD152EA030012D082EA04001A
:1005500083EA0501084305D0101BAB4106D20122F6
:10056000002306E000224FF0004302E06FF001029A
:1005700053101AEB06004CEB085110EB0A0041EB4C
:100580000B01BDE8F04D00F00AB996230022114698
:1005900000F0D7B80EB5C10F80EAE0700844CA0772
:1005A000002140F233438DE80E000A460B4600F06E
:1005B00005F903B000BD0EB540F2334102910021B0
:1005C000CDE900110A460B4600F0F8F803B000BD73
:1005D00000F0004230F000400AD0C10D01F560711A
:1005E000C0F3160042EA0151C208400711437047A8
:1005F000002001467047000030B5041E71F1000470
:1006000004DB4FF00044404264EB0101141E73F11F
:10061000000405DB1C464FF00043524263EB040329
:100620008B4208BF824230BD01F0004330B421F05C
:10063000004150EA010206D00A0DA2F56072C1F332
:100640001301002A02DC30BC00207047440F44EA4A
:10065000C104C100E01830BC00EBC25000F068B823
:1006600030B50B46014600202022012409E021FA82
:1006700002F59D4205D303FA02F5491B04FA02F57F
:100680002844151EA2F10102F1DC30BD2DE9F05F16
:100690000546002092469B468846064681464024F1
:1006A0001BE0284641464746224600F07FF9534664
:1006B0005A46C01A914110D311461846224600F0FE
:1006C00016F82D1A67EB01084F462246012000213B
:1006D00000F00DF817EB00094E41201EA4F10104B3
:1006E000DFDC484631462A464346BDE8F09F202AD3
:1006F00004DB203A00FA02F1002070479140C2F179
:10070000200320FA03F3194390407047202A06DBA8
:10071000CB17203A41FA02F043EAE07306E041FACF
:1007200002F3D040C2F120029140084319467047BD
:100730000029A8BF7047401C490008BF20F00100F5
:10074000704710B4B0FA80FC00FA0CF050EA0104D3
:1007500004BF10BC704749B1CCF1200421FA04F465
:1007600011FA0CF118BF012121430843A3EB0C013E
:10077000CB1D4FEA00614FEA102042BF002010BCA1
:10078000704700EBC35010440029A4BF10BC704751
:10079000401C490008BF20F0010010BC704710B594
:1007A000141E73F1000408DA401C41F10001921894
:1007B0005B411A4301D120F0010010BD2DE9F04D3D
:1007C00092469B4611B1B1FA81F202E0B0FA80F292
:1007D00020329046FFF78BFF04460F4640EA0A009E
:1007E00041EA0B0153465A46084313D0114653EAD7
:1007F000010019D0C8F14002504600F0D7F8054674
:100800000E46504659464246FFF771FF084305D051
:10081000012004E020463946BDE8F08D0020054364
:1008200046EAE0762C4337430A986305E40AA0EBD6
:1008300008000022FD0A44EA47540A3002D500208D
:100840000146E9E7010510196941DDE9084500198C
:100850006941BDE8F04DA2E770B521F000430343C4
:100860000CD0C1F30A550024D5EB040564EB040356
:10087000D617AD1AB34102DB0020014670BD201827
:1008800041EB025170BD2DE9F04D00231A461B1AB1
:100890008A4103DB00200146BDE8F08DC1F30A5216
:1008A000C1F3130141F480154FF0000BD10702D1C1
:1008B00000186D41521E0027044640F2FF113846D1
:1008C00001EB620A3E468046024600204FF480114A
:1008D00000F06CF8C2197141BB1846EB0100B4EB93
:1008E000030C75EB000C04D3E41A65EB0005174606
:1008F0000E46241908F101006D4180463428E3DDDD
:10090000F91946EB0600091BA84103D24FF0FF324C
:10091000134601E0002213461BEB070046EB0A5189
:10092000BDE8F04DFFF73BBFC1F30A52C1F313011D
:1009300040F2FF3341F480119A4202DA002001466E
:10094000704740F233439A42A2F2334202DC5242F1
:1009500000F02CB8FFF7CBBE30B5041E71F10004D7
:1009600004DB4FF00044404264EB0101141E73F1BC
:10097000000405DB1C464FF00043524263EB0403C6
:10098000994208BF904230BD064C074D06E0E06832
:1009900040F0010394E8070098471034AC42F6D3C6
:1009A000FFF7CAFBB4410008D4410008202A04DB49
:1009B000203A21FA02F00021704721FA02F3D040D8
:1009C000C2F12002914008431946704770B58C1857
:1009D00010F8015B15F0070301D110F8013B2A1153
:1009E00006D110F8012B03E010F8016B01F8016B40
:1009F0005B1EF9D12B0705D40023521E0DD401F83C
:100A0000013BFAE710F8013BCB1A921C03E013F804
:100A1000015B01F8015B521EF9D5A142D8D3002039
:100A200070BD0029816802D041F0010101E021F090
:100A300001018160704700000D4910B5884202D164
:100A4000012144150AE00B49884202D10121041515
:100A500004E0094988420AD10121CC03204601F073
:100A60005BF92046BDE81040002101F055B910BDEA
:100A70000024014000280140003C014001460020C4
:100A80008968490700D501207047C06C80B2704763
:100A90000246002012680A4200D001207047014639
:100AA00000208968090700D50120704710B5426809
:100AB0000E4B0C791A400B6842EA04221343436040
:100AC00082680B4B1A40D1E9024323434C7942EA36
:100AD000440213438360C26A097C22F47002491EF7
:100AE000C9B242EA0151C16210BD0000FFFEF0FF31
:100AF000FDF7F1FF70B5072609290AD9C568A1F1EC
:100B00000A0404EB4404A640B543A3401D43C5605A
:100B100007E0056901EB4104A640B543A3401D432E
:100B200005611F23072A09D2446B521E02EB820281
:100B300093409C4391400C43446370BD0D2A09D2FD
:100B4000046BD21F02EB820293409C4391400C4302
:100B5000046370BDC46A0D3A02EB820293409C4369
:100B600091400C43C46270BD816841F0080181600E
:100B700070470029816802D041F4A00101E021F40E
:100B8000A00181607047816841F004018160704775
:100B900070B5074A0C46054612780AB900F00AF803
:100BA00021462846BDE87040002200F05FBB0000EF
:100BB0003001002030B5012185B0480201F0A0F8D5
:100BC0004FF4004001F07AF8164C2046FFF734FF4E
:100BD00000214FF460208DF80410CDE9020100914E
:100BE0008DF8051001258DF8105069462046FFF755
:100BF0005DFF01212046FFF714FF2046FFF7B4FFF9
:100C00002046FFF74CFF0028FAD12046FFF7BBFF34
:100C10002046FFF733FF0028FAD10348057005B0DE
:100C200030BD000000240140300100202DE9F043D8
:100C3000814687B00C4610469846FFF7C9FC064629
:100C40000F462046FFF7C4FC04460D464846FFF712
:100C5000BFFC02461FFA88F04FEA1843CDE9023084
:100C60000B46CDE9004515491548CDE9046701F06B
:100C7000F7FB144D1249284601F0D7FB4FF4967646
:100C8000304602F0DBFA10A11348FFF7DDFA134CEF
:100C90000AE00B49284601F0C8FB304602F0CEFAC4
:100CA00009A10D48FFF7D0FA606000F079F960689B
:100CB0000028EED007B0BDE8F08300001C4100081A
:100CC000B0480020004800402B514D545055423A46
:100CD00020302C312C300000E04600203401002070
:100CE00070B5304C0020304D207008224FF4E131B7
:100CF000284601F017FB2DA1284601F096FB4FF482
:100D00009676304602F09AFA2AA12B48FFF79CFA11
:100D1000606000F045F9606810E028A001F090FBE9
:100D200000F03EF921A1284601F07FFB304602F099
:100D300085FA20A12048FFF787FA60600028ECD0F0
:100D400025A1284601F071FB304602F077FA00F049
:100D500027F9144928460C3101F067FB304602F0B0
:100D60006DFA00F01DF91FA1284601F05EFB304628
:100D700002F064FA1EA11048FFF766FA606000F006
:100D80000FF960680028EED0064928461B3101F0B3
:100D90004CFB304602F052FA00F002F900F02EF857
:100DA000207870BD34010020004800404154690D96
:100DB0000A0000004F4B0000E04600200D0AB5A5D8
:100DC000C6ACBBFAD5FDD4DAC1ACBDD3B5BDC4A3A6
:100DD000BFE92E2E2E0D0A0041542B43494D490DDB
:100DE0000A00000041542B43474154543F0D0A0070
:100DF0002B43474154543A20310000002DE9F04183
:100E00000024194E4FF47A77184D29E017493046DF
:100E10006931641C01F009FB384602F00FFA14A195
:100E20001748FFF711FA686000F0BAF8686888B1EF
:100E30000E493046AC3101F0F8FA4FF4967002F0EA
:100E4000FDF90BA10E48FFF7FFF9A860BDE8F041DE
:100E500000F0A6B8142C03DD01202870BDE8F08155
:100E6000A8680028D2D0F9E70048004034010020EB
:100E70002B514D544F50454E3A20302C300000003D
:100E8000E046002070B50B490446097809B900F026
:100E900015F8094D0121284601F07EF8002C08D0F4
:100EA000204602F0CBF92846BDE87040002101F051
:100EB00073B870BDF60100200004004030B5012178
:100EC00087B0084600F01CFF0121022000F000FF5F
:100ED0000121184800F08EF918222021164800F050
:100EE000C5F90024ADF816406320ADF81400ADF844
:100EF000124040F2CF20114DADF810008DF818408F
:100F000004A9284601F09CF8684601F08FF83220C9
:100F1000ADF806006020ADF80000ADF808400124EF
:100F2000ADF802406946284601F040F804480470D4
:100F300007B030BD00081A00000C0140000400405A
:100F4000F601002070B51348007808B9FFF7B6FF26
:100F5000114C0121204601F01FF84FF47A75284604
:100F600002F06CF90021204601F016F86E103046B0
:100F700002F064F90121204601F00EF8284602F043
:100F80005DF90021204601F007F83046BDE87040C9
:100F900002F054B9F601002000040040FEE7000012
:100FA00010B5084801F04CFA142002F047F9054941
:100FB0000020C1F80401BDE810404FF480710148E1
:100FC000FFF737B9E04600207047000070B51648BB
:100FD0000024016821F470410160016841F400417E
:100FE0000160124D04E0641CE4B2012002F02CF90F
:100FF000D5F82C0110B1642CF5D30DE0642C0BD284
:10100000002404E0641CE4B2012002F01DF9D5F8CC
:101010002C0118B1642C04D3012070BD642CF1D3D1
:10102000FAE7002070BD00000408014000002142E2
:1010300070B51022074DD4012146284600F016F95C
:101040002146284600F00BF900F068F8BDE8704032
:10105000FFF7BCBF0008014070B50024104D04E04C
:10106000641CE4B2012002F0EFF8D5F82C0108B1BD
:10107000642CF5D3002404E0641CE4B2012002F0E7
:10108000E3F8D5F82C0108B9642CF5D3282002F038
:10109000DBF8D5F82C01002800D0012070BD00003D
:1010A0000000214270B5002004464006050EFFF7FF
:1010B000D3FF641C2843E4B2082CF6D370BD7CB582
:1010C0000546012080F3108800F028F8FFF77EFF26
:1010D00000BB00246E46FFF7E5FF3055641CE4B208
:1010E000052CF8D39DF800109DF801309DF80220E2
:1010F0009DF80300CC18161834449DF80460B442DF
:1011000008D16970EB702A70A870002080F31088F5
:1011100001207CBD002080F310887CBD0C4810B5F8
:10112000016821F470410160016841F4405101609F
:10113000084C0020C4F8AC01142004F5D67402F069
:101140007DF801202060BDE810401E2002F07CB830
:101150000408014000002142F0B5CC78002204F0E0
:101160000F03E40601D58C7823430C784FF00F0C65
:1011700014F0FF0F4FF0010E1BD005680E880EFA19
:1011800002F42640A64210D196000CFA06F725EA92
:10119000070703FA06F5CE783D43282E02D0482EE5
:1011A00002D002E0446100E00461521C082AE5D349
:1011B00005600A88FF2A1CD94468002202F108064B
:1011C0000EFA06F50E882E40AE420ED196000CFAAD
:1011D00006F7BC4303FA06F7CE783C43282E00D12D
:1011E0004561CE78482E00D10561521C082AE5D30E
:1011F0004460F0BDF0B5144C002801DAE36900E06A
:101200006368450D2E0185B2C0F30157B540C0F3A8
:101210000342032F05D0C6020AD503269640B343E6
:1012200007E023F07062636823F07063636002E09C
:10123000AB4343F0706201B12A43002801DAE26156
:10124000F0BD6260F0BD00000000014002460020D9
:1012500092680A4200D001207047416170470161E5
:1012600070470AB10161704741617047F8B50446A3
:10127000104815460E46844202D1012104200AE09E
:101280000D48844202D10121082004E00B48844229
:1012900003D10121102000F033FDADF800608DF87E
:1012A000035003208DF8020069462046FFF754FFE3
:1012B000F8BD000000080140000C01400010014092
:1012C00010B50B4C0146072301222046FFF712FC04
:1012D00001212046FFF74DFC02212046FFF7D8FBF5
:1012E0000028F9D02046BDE81040FFF7CEBB000033
:1012F0000024014000F062B82DE9FC5F00274006A1
:101300008A463E464FF00109050EFF2400F004F91D
:10131000641E14F0FF0431D000F0D8F8284600F025
:10132000C1F848BB504600F0BDF828BB00F0CEF82D
:1013300005F1010808F0FF0000F0B4F8E0B9002062
:1013400000F078F80746002000F074F80646012007
:1013500000F070F88DF8038083468DF802708DF8E8
:10136000016000208DF805508DF800008DF804A074
:10137000684600F0D7FB8146CB45C7D147EA062037
:10138000BDE8FC9F10B507210020FFF7B5FFFFF770
:1013900012F9064A064BFFF717F84FF06632054B75
:1013A000FFF70CF8BDE81040FFF73EB97B14AE47DD
:1013B000E17A943F66127140FEE7000010B5094CD7
:1013C000142203212046FFF751FF0122022120466B
:1013D000FFF747FF20460122BDE810401146FFF706
:1013E00040BF0000000C014070B5114D01220221E8
:1013F0002846FFF736FF0A2001F026FF012211469A
:101400002846FFF72EFF0A2001F01EFF0221284682
:10141000FFF71CFF08B1012400E000240022012195
:101420002846FFF71EFF0A2001F00EFF204670BD80
:10143000000C014070B5064600256006040EFFF75B
:10144000D3FF10B144F0010401E004F0FE046D1C70
:10145000EDB2082DF1D3304600F002F8204670BD01
:1014600010B50F4C08B1012200E0002202212046F5
:10147000FFF7F7FE0A2001F0E7FE012211462046A1
:10148000FFF7EFFE0A2001F0DFFE002201212046D7
:10149000FFF7E7FEBDE810400A2001F0D5BE0000CE
:1014A000000C014070B505460024280601D5012036
:1014B00000E00020FFF7D4FF6806641C050EE4B2CC
:1014C000082CF2D3BDE87040FFF78EBF10B5114C69
:1014D000012202212046FFF7C4FE0A2001F0B4FEDB
:1014E000012211462046FFF7BCFE0A2001F0ACFEA7
:1014F000002202212046FFF7B4FE0A2001F0A4FEDC
:10150000002201212046FFF7ACFEBDE810400A2072
:1015100001F09ABE000C014010B50D4C00220221D2
:101520002046FFF79EFE0A2001F08EFE01221146A2
:101530002046FFF796FE0A2001F086FE01220221D6
:101540002046FFF78EFEBDE810400A2001F07CBE69
:10155000000C014010B5094C14224FF44071204694
:10156000FFF784FE012251022046FFF77AFE204653
:101570000122BDE810401102FFF773BE000C0140CC
:101580002DE9F0411C4615460F46064600F09EF830
:101590007006000E00F086F820B100F0BFF80120C0
:1015A000BDE8F081384600F07DF800F08FF80120AA
:1015B00000EB4600C0B200F075F808E0012D0CD039
:1015C000002000F035F86D1E04F8010BEDB2002D7F
:1015D000F4D100F0A3F80020E2E70120F1E70000D9
:1015E00070B50122114D540221462846FFF739FEFD
:1015F0000A2001F029FE0122160231462846FFF793
:1016000030FE0A2001F020FE21462846FFF71EFE8C
:1016100008B1012400E00024002231462846FFF7EB
:1016200020FE0A2001F010FE204670BD000C014093
:1016300070B5064600256006040EFFF7D1FF10B115
:1016400044F0010401E004F0FE046D1CEDB2082D2D
:10165000F1D3304600F002F8204670BD70B5104C52
:101660004FF4007108B1012200E000222046FFF78C
:10167000F8FD0A2001F0E8FD012215022946204666
:10168000FFF7EFFD0A2001F0DFFD0022294620468A
:10169000FFF7E7FDBDE870400A2001F0D5BD00006E
:1016A000000C014070B505460024280601D5012034
:1016B00000E00020FFF7D2FF6806641C050EE4B2CC
:1016C000082CF2D3BDE87040FFF78ABF70B5012245
:1016D000114D540221462846FFF7C3FD0A2001F0B0
:1016E000B3FD0122160231462846FFF7BAFD0A2053
:1016F00001F0AAFD002221462846FFF7B2FD0A208C
:1017000001F0A2FD002231462846FFF7AAFDBDE800
:1017100070400A2001F098BD000C014070B50E4DDC
:101720004FF40074002221462846FFF79AFD0A2054
:1017300001F08AFD012211022846FFF792FD0A20DE
:1017400001F082FD012221462846FFF78AFDBDE80F
:1017500070400A2001F078BD000C014010B5012155
:10176000084600F0CDFA01210848FFF743FD084C78
:10177000102211462046FFF779FD10212046FFF781
:101780006CFD04490120087010BD0000000130000C
:10179000000C0140F7010020064810B50078012830
:1017A00001D0FFF7DBFFBDE8104010210248FFF732
:1017B00054BD0000F7010020000C0140064810B5A0
:1017C0000078012801D0FFF7C9FFBDE810401021C3
:1017D0000248FFF744BD0000F7010020000C014063
:1017E00010B5FFF7EBFF4FF47A74204601F026FDA9
:1017F000FFF7D2FF204601F021FDBDE81040FFF7C2
:10180000DDBF000000B58BB000F09CF80022114B4A
:10181000FEF7F2FE1BD24FF4FA7001F00FFD05A89F
:1018200000F03EF8142205A96846FEF7E9FC0A49D3
:101830000398884208DC02460848824204D8049A89
:101840008A4201DC824202D900200BB000BD012097
:10185000FBE700000000244000009642000096C212
:1018600010B588B0044605AB06223B216820FFF77F
:1018700087FEBDF81400142241BAADF80010BDF87F
:10188000160041BABDF81800ADF8021040BAADF824
:10189000040069462046FEF7B3FC08B010BD000006
:1018A0002DE9F0438FB0814605A8FFF7D9FF142238
:1018B00005A96846FEF7A4FCBDF900004042FEF70A
:1018C00069FE04460D46BDF90400FEF763FE22469C
:1018D0002B4601F0D3FB184E00223346FEF774FD71
:1018E000164FDFF85C803A464346FEF7DFFDFEF711
:1018F0009BFE0E90BDF900004042FEF74BFE0446F1
:101900000D46BDF90200FEF745FE2B46224601F0CA
:10191000B5FB00223346FEF757FD3A464346FEF735
:10192000C5FDFEF781FE0D9014220AA94846FEF778
:1019300067FC0FB0BDE8F083008066404AD8124DC6
:10194000FB2109402DE9F047002694B03746344684
:101950000DF1280905A8FFF783FF142205A96846A1
:10196000FEF74EFCBDF90010BDF90200494300FB33
:101970000011BDF9040000FB0010FEF70BFE01F0A2
:101980001FFF09EBC4023B46C2E900013246FEF7E5
:1019900074FC641C06460F46052CDBDBDFF85CA0FC
:1019A00000225346FEF782FD06460F46002409EB4F
:1019B000C4003246D0E9001C08463B466146FEF7AB
:1019C000FDFC02460B46FEF7FFFC2A464346FEF7A7
:1019D00054FC641C05468846052CE8DB002253466F
:1019E000FEF764FD01F0ECFE02460B4614B03046F3
:1019F0003946BDE8F047FEF759BD0000000014402D
:101A000010B5FFF7A7FD01216B2000F034F800218D
:101A10006C2000F030F80921192000F02CF8062184
:101A20001A2000F028F818211B2000F024F81821B3
:101A30001C2000F020F8752000F006F8682801D07E
:101A4000012010BD002010BD10B50446FFF73EFE7A
:101A5000D020FFF727FE2046FFF724FEFFF736FED3
:101A6000D120FFF71FFE0120FFF7E2FD0446FFF73C
:101A700055FE204610BD70B50C460546FFF726FE04
:101A8000D020FFF70FFE38B92846FFF70BFE18B934
:101A90002046FFF707FE18B1FFF740FE012070BD9A
:101AA000FFF73CFE002070BDFEE7704730B50F2306
:101AB000C27801780125F2B1144A126801F1E021DF
:101AC00002F4E062C2F5E062120AC2F10404D340FB
:101AD0004278A24084781C401443220181F80024FB
:101AE000007800F01F018D404009800000F1E020E7
:101AF000C0F8005130BD01F01F008540480980004A
:101B000000F1E020C0F8805130BD00000CED00E095
:101B10000249084302490860704700000000FA05C6
:101B20000CED00E02DE9FC4300274FF001084FF0D9
:101B300007094FF0800C6E468DF803708DF8027027
:101B40008DF805708DF801802F2205238DF8047023
:101B50008DF80090002109E0521ED2B2072902D26E
:101B6000491CC9B202E000215B1EDBB22CFA01F471
:101B7000C55C254201D1002BEED1A2F10801CDB206
:101B800014E00521731813F8013C1B0602D509B1B6
:101B9000012300E00023745C6400745423447354F4
:101BA000491EC9B2FF29EDD36D1EEDB2002DE8D15B
:101BB0000021435C745C63404354491CC9B205294D
:101BC000F7D9082AB8D80078BDE8FC830020FFF7D1
:101BD00077BB000001210148FEF7DABF0008014091
:101BE0000420FFF76DBB70B58AB028216846FEF768
:101BF00020FB00246D46FFF7F3FF25F81400641C5A
:101C0000E4B2142CF7D300210020C1F113060BE03D
:101C100005EB400335F810205C88A24202D925F874
:101C200010405A80401CC0B28642F1DC491CC9B247
:101C30001329E9D30021022035F81020401C11445B
:101C4000C0B289B21228F7D30AB0080970BD0000EB
:101C500070B510211648FEF79BFF164D164CE08913
:101C60002082FFF7BDFFE081218AA289411A9142BB
:101C700004DA217825F81100491C217020782828E1
:101C8000EDD30020207028210A4801F003FB608278
:101C90002821084801F00DFBA082618A0A18520829
:101CA000081A00EBD070E2824008A08170BD0000ED
:101CB00000080140B0490020F8010020034A5168A3
:101CC00021F4404101435160704700000010024080
:101CD000044A0029D16901D0014300E08143D16168
:101CE0007047000000100240044A0029116901D029
:101CF000014300E081431161704700000010024081
:101D0000044A0029916901D0014300E081439161B7
:101D10007047000000100240044A0029D16801D039
:101D2000014300E08143D160704700000010024091
:101D300030B5204A5168204B11F00C0103D0042922
:101D400001D0082901D0036012E05168536801F402
:101D500070114FF0020413F4803F04EB914102D064
:101D600053689B0301D5154B00E0134B59430160A9
:101D700051680F2303EA1111114B5C5C0168E140CB
:101D800041605468072505EA14241C5D21FA04F417
:101D90008460546805EAD4241B5DD940C160526850
:101DA000032303EA9232064B1B1F9A5CB1FBF2F14C
:101DB000016130BD0010024000127A0000093D00B0
:101DC000C00000200CB50022264800920192016854
:101DD00041F4803101604FF4A063016801F40031E7
:101DE00001910099491C0091019911B900999942FA
:101DF000F3D10168890333D5012101911A490A6899
:101E000042F010020A600A6822F003020A600A68BF
:101E100042F002020A6041684160416841604168E5
:101E200041F480614160416821F47C114160416866
:101E300041F4E8114160016841F08071016001687E
:101E40008901FCD5416821F003014160416841F0FE
:101E5000020141604168C1F381010229FAD10CBD40
:101E600001920CBD001002400020024008224FF4F5
:101E70001651014800F056BA004400402DE9F041E7
:101E8000804600248EB00F4625460846FEF7EEF940
:101E9000C6B2FD208DF8000000208DF80100F01C76
:101EA0008DF8020001208DF8030000EB08108DF87A
:101EB0000400E84618F805006D1C4440052DF9D3D0
:101EC000002002E0395C4C40401CB042FAD332465C
:101ED000394608F10500FEF793F908EB0600084DB6
:101EE00044710024B61D05E018F80410284600F0DF
:101EF00097FA641CB442F7D30EB0BDE8F08100003D
:101F0000004400404FF0E0210428086903D020F08D
:101F100004000861704740F00400FAE710B5BF20E4
:101F200080F31188BFF34F8FBFF36F8F01F0EAFF8B
:101F300018B104494FF080500860002080F31188E8
:101F400010BD000004ED00E00F4810B5016841F03D
:101F50000101016041680D4A1140416001680C4A6D
:101F600011400160016821F480210160416821F481
:101F7000FE0141604FF41F018160FFF723FF054917
:101F80004FF00060086010BD001002400000FFF834
:101F9000FFFFF6FE08ED00E00029018802D041F0C5
:101FA000010101E021F001010180704770B5028C50
:101FB00022F010020284028C8388048B0D8824F4A2
:101FC000E6464FF6FF7404EA052535430E8922F0F4
:101FD000200204EA061616434A8804EA0212324333
:101FE000104EB04202D0104EB04215D122F0800601
:101FF0004A8923F4406304EA0212324322F0400685
:102000008A8804EA021232438E8904EA86061E4355
:10201000CB8904EA8303334383800583C98801871E
:10202000028470BD002C0140003401400021018079
:1020300041808180C180018141818181C18170475E
:1020400030B502881B4C1C4DA0420DD0A8420BD0CD
:10205000B0F1804F08D0194B984205D0184B9842E8
:1020600002D0184B984203D122F070034A881A43D9
:10207000154B984206D0154B984203D022F440737A
:10208000CA881A4302808A8882850A880285A0420B
:102090000AD0A84208D00E4A904205D00D4A90427C
:1020A00002D00D4A904201D1097A01860121818234
:1020B00030BD0000002C014000340140000400400D
:1020C00000080040000C00400010004000140040D8
:1020D00000400140004401400048014070B5154CEB
:1020E00040F22551204600F089F800280ED0204605
:1020F00000F012F9104AC1B21088030406D4440457
:102100004FF0000306D50A2901D0138070BD40F4BA
:1021100000400DE00D2909D0C0F30D04074D401C0F
:1021200080B229551080C728EFD870BD40F4804098
:10213000108070BD0038014028010020E8470020D1
:10214000014800F0E9B800000044004010B5084C18
:1021500040F22551204600F051F8002807D02046D3
:1021600000F0DAF8BDE81040C0B201F0CBB810BD05
:10217000004800400029818902D041F4005101E06B
:1021800021F4005181817047174910B588420AD166
:1021900001218C032046FFF7BFFD2046BDE810401B
:1021A0000021FFF7B9BD1149884202D101214C0439
:1021B00010E00F49884202D101218C040AE00D4948
:1021C000884202D10121CC0404E00B4988420AD1A3
:1021D00001210C052046FFF787FD2046BDE8104091
:1021E0000021FFF781BD10BD0038014000440040D0
:1021F00000480040004C00400050004070B501F025
:102200001F0501260024C1F3421306FA05F2012B33
:102210000FD0022B0FD0838A4FEA1121008813427E
:1022200006FA01F600EA060001D000B101242046BA
:1022300070BD8389F0E7038AEEE710B5C1F342135E
:1022400001F01F040121A140012B07D0022B07D070
:102250001430002A026805D00A4304E00C30F8E785
:102260001030F6E78A43026010BD000030B5044626
:10227000008A85B00D464CF6FF710840E98801439D
:102280002182A0894EF6F3110840A9882A891143BA
:102290006A8902431143A181A08A4FF6FF41084099
:1022A000A9890143A1826846FFF742FD194884428B
:1022B00001D1039800E00298A189090400EBC00154
:1022C00001EB0010296801D5490000E08900B0FB4E
:1022D000F1F06422B0FBF2F109010B096FF018056F
:1022E0006B4300EB8300A3891D044FF0320306D536
:1022F00003EBC000B0FBF2F000F0070005E003EBD9
:102300000010B0FBF2F000F00F000843208105B090
:1023100030BD0000003801408088C0F308007047DD
:10232000FEE700002DE9F04F8B463849DFF8E090DA
:1023300085B0174680464FF4806A88420AD1012151
:1023400044F20400FFF7DCFC4E464FF4007455469F
:1023500025201EE02F4988450CD101210420FFF7DC
:10236000CFFC01214804FFF7B3FC042408254E46A6
:1023700026200EE0284988450FD101210820FFF7CB
:10238000BFFC01218804FFF7A3FC244E5446F5143A
:1023900027208DF800008DF801704046FFF7F4FE0D
:1023A000182221463046FEF761FF042229463046B6
:1023B000FEF75CFF4FF44070FFF7AAFB00248DF896
:1023C000024001208DF803006846FFF76FFBADF86F
:1023D0000C400C20ADF80840ADF80E00CDF804B06C
:1023E000ADF80A40ADF8104001A94046FFF73EFFA6
:1023F00001214046FFF7BEFE012240F22551404632
:10240000FFF71BFF05B0BDE8F08F0000003801406A
:10241000000801400044004000480040000C01401A
:1024200002885206FCD58180704704E003885B0671
:10243000FCD58280491C0A78002AF7D17047000039
:102440000FB4054B10B503A9044A029800F06AF9CD
:1024500010BC5DF814FB00007D3200082C01002048
:102460000FB4084B10B504A902AA039800F05AF95A
:10247000044602A9002000F0ECFC204610BC5DF8E8
:1024800014FB0000532E0008490050EAC12018BF79
:1024900004204A0D18BF40F0010040F2FF72B2EB79
:1024A000515F08BF40F00200012808BF05207047B7
:1024B0002DE9F0414F1E00EBC7010446D1E90001B0
:1024C00015461E4637F006020DD02A463346FDF764
:1024D0007BFF7F1E04EBC703D3E90023FDF7CDFE8E
:1024E00037F00602F1D1022F25D0042F13D0062F8A
:1024F00018BFBDE8F0812A463346FDF765FFD4E9F1
:102500000A23FDF7BAFE2A463346FDF75DFFD4E9FC
:102510000823FDF7B2FE2A463346FDF755FFD4E9FE
:102520000623FDF7AAFE2A463346FDF74DFFD4E900
:102530000423FDF7A2FE2A463346FDF745FFD4E902
:102540000223FDF79AFE2A463346FDF73DFFD4E904
:102550000023BDE8F041FDF790BE0122FEF77CB9F3
:10256000FDF78BBE024A00201107FEF775B9000087
:1025700001FDFFFF02E008C8121F08C1002AFAD1BE
:1025800070477047002001E001C1121F002AFBD1F3
:1025900070470000014908607047000014020020E5
:1025A0002DE9FF5F82B00021DDE90430020DDDF886
:1025B00040B0034318D044F61050A2F2FF32424319
:1025C0001514119801281FD0A5EB0B00401C5FEAE1
:1025D000000A4FF000064E4FDFF83891B0465046E3
:1025E00015D5CAF1000413E0119801244AA301286B
:1025F00001D16FEA0B010298119AC0E90031C0E9DC
:10260000024206B0BDE8F09FCBF10000DFE70446D0
:102610000021404A491842EB0450CDE9001012E075
:10262000E00707D032463B4640464946FDF7CCFE20
:102630008046894632463B4610461946FDF7C4FEA1
:1026400006460F466410002CEAD1DDE90401DDE9FD
:102650000023BAF1000F06DAFDF7B6FE42464B46FC
:10266000FDF7B2FE05E0FDF721FF42464B46FDF7C0
:102670001DFF04460E460022284BFEF76DF903D8D5
:102680004FF0FF30014607E00022254B204631463F
:10269000FDF7F3FDFEF748F9102409E0002C0ADBF2
:1026A0000A220023FDF7F2FF039B30321A55641E05
:1026B00050EA0102F2D1641C039AC4F111031444DC
:1026C000119A012A03D0012208430DD10AE00843E0
:1026D00004D000204FF0110B119072E7A3EB0B0513
:1026E0006D1E0DE05B4504DD4FF0000205F10105B4
:1026F00004E003DA4FF00002A5F10105002AECD056
:1027000002981199C0E90231C0E9004579E700005B
:10271000000014400000F03F300000000000F043D3
:102720000000E03F2DE9FF4F95B09B4689460646E5
:1027300000250FE2252877D100242746F84A0121F9
:10274000059400E0044316F8013F203B01FA03F032
:102750001042F7D130782A2811D06FF02F0330784B
:10276000A0F13002092A16D8059A44F0020402EBBF
:10277000820203EB42021044761C0590EFE759F801
:10278000042B0592002A03DA504244F400540590C9
:1027900044F00204761C30782E2816D116F8010F6A
:1027A00044F004042A280DD06FF02F023078A0F1F5
:1027B0003003092B09D807EB870302EB4303C71843
:1027C000761CF3E759F8047B761C30786C280FD020
:1027D00006DC4C2817D068280DD06A2814D104E0F4
:1027E000742810D07A280FD10DE044F400140AE0C8
:1027F00044F4801401E044F440147278824202D11F
:1028000004F58014761C761C307866280BD013DC17
:10281000582877D009DC002875D04528F6D04628FE
:10282000F4D047281AD19DE118E0632835D06428F8
:1028300079D0652812D195E1702873D008DC67281B
:10284000F1D069286FD06E280DD06F2806D1B5E081
:1028500073282CD0752875D0782874D05A461799CB
:1028600090476D1C75E1C4F30250022809D003287B
:102870000DD0D9F8001004280DD00D6009F104091D
:1028800067E1D9F80010EA17C1E90052F6E7D9F874
:1028900000100D80F2E70D70F0E719F8041B8DF8B9
:1028A000001000208DF80100EA46012003E059F8ED
:1028B00004AB4FF0FF3061074FF0000102D40DE090
:1028C00008F101018846B9420FDA8045F8DB1AF8B1
:1028D00008100029F4D108E008F10101884681427E
:1028E000FADB1AF808100029F6D105985B46A0EB30
:1028F000080721463846179A00F094FA284400EB5E
:10290000080507E04DE029E10DE01AF8010B5A46F1
:1029100017999047B8F10108F7D25B46214638462F
:10292000179A13E142E00A220092C4F302524FF0D8
:10293000000A022A08D059F804CB032A4FEAEC71A6
:102940000AD00DE029E02AE009F1070121F0070291
:10295000F2E802C1914609E00FFA8CFC4FEAEC71F3
:10296000042A03D14FFA8CFC4FEAEC71002907DAF4
:102970000A460021DCF1000C61EB02012D2202E08D
:10298000220504D52B228DF80420012203E0E20762
:1029900001D02022F7E7904659E00A2102E01022F8
:1029A0000DE010214FF0000A00910BE010224FF0D3
:1029B000000A44F004040827009203E008224FF0C4
:1029C000000A0092C4F30252022A05D059F804CB3F
:1029D0000021032A08D009E009F1070121F00702CC
:1029E000F2E802C1914605E01FFA8CFC042A01D1ED
:1029F0000CF0FF0C4FF00008220728D5702806D0F5
:102A0000009B83F0100353EA0A0305D00EE0402236
:102A10008DF80420012208E05CEA010206D0302291
:102A20008DF804208DF8050002229046009B83F06B
:102A3000080353EA0A030AD15CEA010201D16207E2
:102A400005D530228DF804204FF001087F1E58284C
:102A500004D034A003900EA802900DE036A0F9E750
:102A600053466046009AFDF711FE84460398825C47
:102A70000298401E029002705CEA0100F0D10298B8
:102A800006A9081A00F1200A600702D524F4803450
:102A900000E00127574502DDA7EB0A0000E0002017
:102AA00000EB0A01009005984144401A0590E003AC
:102AB00006D45B462146179A059800F0B3F9054401
:102AC000002706E001A85A46C05D179990476D1C83
:102AD0007F1C4745F6DBE0030CD55B462146179A81
:102AE000059800F09FF9054404E030205A461799F4
:102AF00090476D1C0099481E00900029F5DC08E005
:102B0000029802995A460078491C029117999047F9
:102B10006D1CBAF10001AAF1010AF1DC65E10000C7
:102B200009280100303132333435363738396162A3
:102B30006364656600000000303132333435363767
:102B400038394142434445460000000000F058F93E
:102B50000544761C307800287FF4ECAD19B0284687
:102B6000BDE8F08F620700D4062709F1070222F0C2
:102B7000070CFCE80223E14603F000485FEA080C7A
:102B800002D00FF2702C0DE05FEA045C02D50FF268
:102B9000682C07E05FEAC47C02D00FF2602C01E0F1
:102BA000AFF2700C4FF0FF3823F00043CDF850C067
:102BB00065280CD006DC452809D046281DD04728BA
:102BC0003DD13DE0662818D067287ED138E000214D
:102BD000112F01DB112000E0781CCDE9000106A9CE
:102BE0000EA8FFF7DDFCDDE90F010E9A039100212D
:102BF000009207F1010A04914DE04FF00040009768
:102C0000CDE9011006A90EA8FFF7CAFCDDE90F0205
:102C100003920E9B11990022DDF80CA00093049200
:102C200011B9791C00EB010AB7EB0A0004D4C0F11A
:102C3000FF3007F1010A0490AAEB0700019044E07D
:102C4000012F00DA01270021112F01DD112000E002
:102C50003846CDE9000106A90EA8FFF7A1FCDDE981
:102C60000F010E9A0391002104910092BA462107A8
:102C70000CD40399514500DA8A46BAF1010F05DDFB
:102C8000009AAAF10101515C302908D0B84202DA59
:102C900010F1040F06DA0121CDE9011015E0AAF1C7
:102CA0000101E9E7002805DC049901440491AAEB3D
:102CB000000102E0411C514500DD8A460499401A9A
:102CC000401C01904FF000400290200704D401986E
:102CD000504501DBCDF8048000208DF84F000298AC
:102CE0000DF14F07B0F1004F25D02B200E90029828
:102CF0004FF0020800280CDA404202902D200E907E
:102D000007E00A210298FDF7ABFC3031029007F88A
:102D1000011DB8F10001A8F10108F2DC02980028B9
:102D2000EFD1791E0E980870307800F0200040F046
:102D3000450007F8020D12A8C01B00F107081498FF
:102D4000007800B1012000EB0A01019801EBE0716D
:102D500005984144401A401E0590E00306D45B46A6
:102D60002146179A059800F05DF8054414980078FC
:102D700018B15A46179990476D1CE00324D55B465D
:102D80002146179A059800F04DF805441CE0049878
:102D9000002807DBDDE90301884203DD0098405C81
:102DA000179901E0179930205A469047049805F189
:102DB0000105401C04900198401E019004D12E2072
:102DC0005A46179990476D1CBAF10001AAF1010A01
:102DD000DDDC05E017F8010B5A46179990476D1C8A
:102DE000B8F10001A8F10108F4DC5B462146179A0E
:102DF0000598ABE62D0000002B000000200000002D
:102E00002DE9F041044600251E461746880404D4E7
:102E100005E039462020B0476D1C641EF9D52846D0
:102E2000BDE8F0812DE9F041044600251E4690469C
:102E3000C80301D5302700E02027880404D505E029
:102E400041463846B0476D1C641EF9D52846BDE89A
:102E5000F0810A68531C0B60107070472DE9F84F21
:102E600004460D4621F0004000917349814211DC77
:102E70007249884201DC06D12CB120462946BDE8C2
:102E8000F84FFFF76ABB6E48002DCCBF6D496E4905
:102E9000BDE8F88F6D49814211DD6D498142D8BF8F
:102EA0004FF0FF366DDD20462946FFF7EDFA042886
:102EB00008BFFFF757FB20462946BDE8F88F654954
:102EC000654F25F00045814233DD6449814219DDBB
:102ED000002632464FF0804320462946FDF7CDF9C3
:102EE00080468A46012220462946FDF7B5FC00228D
:102EF0003B46FDF763FA42465346FDF7D7FA0446D0
:102F00000D463EE001260022BA463B4620462946B1
:102F1000FDF7B3F980460F46002253462046294666
:102F2000FDF74CFA42463B46FDF7C0FA04460D4613
:102F300027E04B4981421BDDDFF828A10226002251
:102F4000534620462946FDF73FFA00223B46FDF74F
:102F500094F980460F460022534620462946FDF745
:102F60002DFA42463B46FDF7A1FA04460D4608E01D
:102F7000032622462B4600203B49FDF797FA0446DC
:102F80000D4622462B4610461946FDF71DFA8B4684
:102F9000824602460B46FDF717FA074602463348BB
:102FA00088460B4606217844FFF782FA52465B4674
:102FB000FDF70AFA82462E488B463A4643460521DB
:102FC0007844FFF775FA3A464346FDF7FDF90246A5
:102FD0000B46002E504659460CDAFDF74EF92246B4
:102FE0002B46FDF7F1F901B022462B46BDE8F04F24
:102FF000FDF7E7B9FDF741F922462B46FDF7E4F965
:103000001C4A7A4402EBC603D3E90023FDF7D6F944
:1030100022462B46FDF7D2F9174A7A4402EBC60343
:10302000D3E90023FDF7CDF9009A002AB8BF81F05B
:103030000041BDE8F88F0000000010440000F07F60
:10304000182D4454FB21F93FFB21F9BF0000DC3F60
:103050000000203E0000F33F0000F03F0000E63F8C
:10306000008003400000F83F0000F0BF2611000080
:10307000E4100000821000004A1000002DE9F04D1D
:103080009446CCF1000423F000464CEA0404524F6D
:1030900046EAD4749A46884621F00042BC4206D8DB
:1030A000454240EA050442EAD474BC4204D9BDE872
:1030B000F04D6246FFF754BAAAF14055A5F17F657D
:1030C00055EA0C040BD0022404EAAA74434DDFF83D
:1030D00010E144EAD87452EA000B04D00CE0BDE8D9
:1030E000F04DFFF7BBBE002C14BF012CBDE8F08DE6
:1030F000022C30D0032C32D056EA0C0B0AD0BE4240
:1031000020D1BA4209D126F0804622F080423346CF
:10311000114617E000291ADB25E0DFF8C8B0FB44B0
:10312000002C04BFDBE90001BDE8F08D012C02BFDB
:10313000DBE9000181F00041BDE8F08D022C0AD0EE
:10314000032C0CD0BA4212D1B8F1000F0BDA23488D
:103150002549BDE8F08D28462449BDE8F08D284674
:103160007146BDE8F08D1D482149BDE8F08D921BE8
:1031700012153C2AC4BF19481D490EDCBAF1000FD4
:10318000BEBF12F13C0F0020014606DB6246FDF790
:103190008DF921F00041FFF761FE002C08BFBDE86A
:1031A000F08D012C04BF81F00041BDE8F08D114A83
:1031B000114B022C07D0FDF701F92A46BDE8F04D6E
:1031C0000A4BFDF7FBB8FDF7F9F82A46BDE8F04DCC
:1031D000064BFDF7F6B800000000F07F182D4454B0
:1031E000FB2109C0DE0F0000FB21F9BFFB210940D4
:1031F000FB21F93F075C143326A6A13C10B56FF004
:103200000400FEF77FFE0A480A490B4B0068B0FB3A
:10321000F1F2B0FBF1F14FF47A7041434FF0E0204E
:103220001A704161016941F00101016110BD0000A6
:10323000A800002000127A00310100204FF47A71BA
:10324000484300F001B8000070B54FF0E0250021C0
:103250006C69094AAB6912785043AA699A42FCD05A
:1032600002D2A3EB020302E0A4EB020633441944AA
:1032700013468142F1D370BD3101002004490A8810
:103280005206FCD5024AC1B2121D118070470000DF
:103290000038014010B504460088012206E034F8E9
:1032A0001230834200D91846521CD2B28A42F6D359
:1032B00010BD10B504460088012206E034F8123033
:1032C000834200D21846521CD2B28A42F6D310BDB5
:1032D0001CB507490320CDE900010023642205A1A4
:1032E000074800F091FD00F023FD00201CBD000008
:1032F00008000020496E69745461736B000000007F
:10330000753A0008064AD2F80411FF2901D90020B5
:1033100003E05054D2F80401401CC2F80401704785
:10332000E04600202DE9F041184E0F460446F568AE
:103330003068001D00F09EFA38B9306890F82C1003
:1033400001208840316981433161601C07D137B168
:103350003168BDE8F0410E48091D00F037BC306807
:103360002C44AC424460316805D2B06BBDE8F041FA
:10337000091D00F013BC706B091D00F00FFCB06A52
:10338000844200D2B462BDE8F0810000D000002089
:10339000CC0200202DE9F041054600F023FC2E4E22
:1033A000B068401CB06030682C4F10B1706940B3F9
:1033B0002DE03560B068012829D1002404EB840099
:1033C00007EB800000F0DCFB641C052CF6D32348DF
:1033D000643000F0D5FB2148783000F0D1FB1F4865
:1033E0008C3000F0CDFB1D48A03000F0C9FB1B481D
:1033F000B43000F0C5FB1948643070631430B0631A
:1034000005E03068E96AC06A884200D83560706AB1
:103410000121401C7062E86A3269814011433161C8
:1034200000EB800007EB8000291D00F0CFFB00F0CF
:10343000E7FB706900280CD03068E96AC06A8842EE
:1034400007D207494FF080500860BFF34F8FBFF39A
:103450006F8FBDE8F0810000D0000020180200202E
:1034600004ED00E070B5124E124D1CE000F08AFC35
:10347000306820B1002400F09FFDA4B901E00124D0
:10348000F9E700F0AFFBF068C468201D00F0F2F926
:10349000A868401EA8606868401E686000F0B0FB25
:1034A000204600F009F868680028DFD170BD0000F0
:1034B000B8020020D000002010B50446006B00F0D8
:1034C000A9FB2046BDE8104000F0A4BB10484FF413
:1034D0008841420706D0C01D0D4920F00700411A5F
:1034E000C1F588410B4A00230144C2E900030839B1
:1034F000103A21F0070111604B600B600B1AC0E914
:10350000001393604FF000405360D060704700009C
:10351000E002002020010020074E4FF08054074DAC
:10352000FFF7A0FF30680128FAD92C60BFF34F8F56
:10353000BFF36F8FF4E700001802002004ED00E0F5
:103540002DE9F0479A46DDE9096481466FF00303EF
:10355000206B03EB82021044089D20F00708002036
:1035600023180A5C83F834200A5C12B1401C10282E
:10357000F6D3002784F84370052D00D30425E562B7
:10358000C4E91157201D00F006FB04F1180000F0FB
:1035900002FB2461C5F105006462A061E76484F860
:1035A000507052464946404600F0F8F82060002E20
:1035B00000D03460BDE8F08730B5114900E0114615
:1035C0000A688242FBD34B685C18844203D140688E
:1035D00018444860084643681C18944209D1084CB6
:1035E000103C2468A24209D052681A4442600A681A
:1035F00012680260814200D0086030BD0460F9E7C3
:10360000200100200648416B096829B1416BC96857
:10361000C9684968816270474FF0FF31FAE70000DE
:10362000D0000020BF2080F31188BFF34F8FBFF37D
:103630006F8FFEE770B5314C05460026E089208289
:10364000FEF7D1FAE081218AA289411A914205DA76
:103650002B4A217822F81100491C21702078282853
:1036600013D3267028212648FFF714FE60822821F4
:103670002348FFF71EFEA082618A0A185208081A22
:1036800000EBD070E2824008A08161892181E0894D
:10369000E28A904201D9012000E0002060810129E6
:1036A00000D130B16088401C60800F20FFF7C6FD5C
:1036B000C4E7207E401C10F00100208302D0608807
:1036C000A08070BD0028FCD16088E0806680A18861
:1036D0008842F6D9401A00EBC00101EB001080B21D
:1036E0004EF66021B1FBF0F02880C82801D9C8202F
:1036F00002E01E28E5D21E20288070BDF8010020BF
:10370000B04900202DE9F0410546002600F03AFBC3
:10371000214F386808B9FFF7D9FEF868054236D15D
:10372000ADB30835680704D005F00700C0F1080004
:10373000054465B37868854229D817491031084691
:10374000046801E0214604466068A84202D220686D
:103750000028F7D13868844219D00E6820680860C4
:1037600060680836411B102904D960194160656002
:10377000FFF722FF61687868401A7860BA68904263
:1037800000D2B860F86801430020C4E9000100F0ED
:1037900013FC3046BDE8F0811001002010B5031F76
:1037A0004FF080741C601B1F21F001011960191F6C
:1037B000024B0B60143940380A6010BD25360008F2
:1037C0002DE9F04106460F46FDF75DF8041E0D4653
:1037D00018BF0120284320F00040C0F17F6000F1B5
:1037E000E040C00F0ED0301C18BF0120384320F03D
:1037F0000040C0F17F6000F1E040C00F04BF012035
:10380000FEF7C8FE20462946BDE8F08170B50C469B
:10381000064600F0E7F9154D2868C06C80B92968A4
:10382000012081F850005CB101212046FFF77AFDAC
:103830000F494FF080500860BFF34F8FBFF36F8F79
:1038400000F0DEF900F0CEF92868C46C002034B135
:1038500016B12968C86402E02A68611ED16429682B
:1038600081F8500000F0CCF9204670BDD000002057
:1038700004ED00E0D0E9013201699A60D0E901234A
:103880005A604A68824201D182684A60002202611D
:103890000868401E08607047214E224F06F1280438
:1038A000DFF8848086B04FF0FF3904F120054946E7
:1038B0000120FFF7ABFF0028F9D000F093F91BA01F
:1038C000706020A0FEF7BCFDF26830787168904708
:1038D000E169684688471248142269462830FCF797
:1038E0008FFCE068B84209D2404507DA2069B84247
:1038F00004D2404502DA00F083F9D8E708482438BA
:103900008068804706480C388068804740F6AC5194
:10391000884201D9E86800E068688047D1E7000084
:1039200050000020000082C2000082425B763135E8
:103930005D5B74325DD3D0C8CBB5F8B5B9A3A1A394
:10394000A1000000B5F8B5B9A3A1A3A10D0A00001C
:103950001FB52D4D4FF4FA6BA5F1280405F10C06A7
:1039600005F1280805F13407A4F1100A00F03AF92E
:10397000A9682548884700F043F900F033F9B0689A
:103980008047308000F03CF900F02CF91E48D8F850
:1039900008102830884700F033F900F023F9B868A0
:1039A0008047386000F02CF93868FCF711FECDE94B
:1039B0000201B8F80000009033886A78297813A0D3
:1039C000FEF73EFD00F00EF92878FCF7DEFD81469B
:1039D00020606878FCF7D9FD014660603088E0819E
:1039E000B8F80000A0813A68A260DAF820300093AD
:1039F000D4F818C04846DAF81C30E04700F000F967
:103A0000584600F031F9B1E738000020CEC2B6C800
:103A10003A25642CCAAAB6C83A25642CB9E2D5D591
:103A20003A25642CC2F6B2AB3A25642CCCE5CEC262
:103A30003A252E32660D0A000D4D40F6AC58A5F120
:103A40007806A5F1340705F12004A869804728B954
:103A5000002302221946F06800F002FAB868804795
:103A6000404501D9A06800E060688047EDE70000AC
:103A7000780000201CB500F0B5F8FFF7BFFB082266
:103A80004FF4E1312A48FEF74DFCFDF729F90028F3
:103A9000FBD128A0FEF7D4FC28484068804727487F
:103AA0000C30406880472548403040698047234CAF
:103AB0001834A0688047E268207861689047A4F1D4
:103AC00024000068804704F148000068804704F142
:103AD00010004068804704F11C0040688047A4F152
:103AE00050000124CDE900400023642214A11948AC
:103AF00000F08AF9114800233438CDE900406422EF
:103B000015A11A4800F080F90C4903202C39CDE9A1
:103B100000010023642216A1184800F075F9074837
:103B20003838806800F0B8F8BDE81C4000F068B88C
:103B3000003801406F6B0D0A0000000038000020C3
:103B4000446574656374696F6E4461746154617334
:103B50006B00000051390008446574656374696F37
:103B60006E46616C6C5461736B000000393A00085A
:103B7000416C61726D5461736B00000099380008EC
:103B800000F108014FF0FF32C0E90112C16001618C
:103B900000210160704700210161704730B50C6859
:103BA000621C02D000F1080202E0026904E01A4639
:103BB00053681D68A542FAD953684B6099608A60C2
:103BC000516008610168491C016030BD42684A606B
:103BD00093688B6093685960916008610168491C23
:103BE00001607047BF2080F31188BFF34F8FBFF390
:103BF0006F8F02480168491C016070470C0100206A
:103C000003490868401E086001D180F3118870479D
:103C10000C01002070B5002818D00D4DA0F108044B
:103C20006068E968084211D02268002A0ED18843F2
:103C3000606000F0A7F86068696808446860204622
:103C4000FFF7BAFCBDE8704000F0B6B970BD0000E7
:103C5000100100204FF0E02002494161072101617D
:103C6000704700003F19010010B5020009D000F0B4
:103C700089F800211046FFF755FB00F09DF9002858
:103C800007D104494FF080500860BFF34F8FBFF356
:103C90006F8F10BD04ED00E070B50446FFF7A2FF82
:103CA000204D04B92C68201DFFF7E4FD58B9E06AE7
:103CB0001D4A00EB800152F8211021B901218140F9
:103CC000286988432861A06A18B104F11800FFF739
:103CD000D1FD686A401C68622868844208D1124895
:103CE000211DA030FFF772FF6868401C686007E084
:103CF000A868401EA8602046FFF7DEFBFFF782FCA5
:103D0000FFF77EFF686900280AD02868844207D13F
:103D100006494FF080500860BFF34F8FBFF36F8F9D
:103D200070BD0000D00000201802002004ED00E06B
:103D30001CB510480024CDE90040234680220EA186
:103D40000F4800F061F8012812D1BF2080F31188DC
:103D5000BFF34F8FBFF36F8F06484FF0FF312C3802
:103D6000816201214161C460BDE81C4000F034B8AB
:103D70001CBD0000FC00002049444C450000000030
:103D8000193500080248016B491C016370470000A7
:103D9000D00000200E4A106B10B10120D061704796
:103DA0000020D06110690B49B0FA80F0C0F11F000B
:103DB00000EB800001EB800000F1080341684968D6
:103DC0004160994201D149684160C86810607047FC
:103DD000D000002018020020094810B5016841F405
:103DE0007F010160016841F07F410160FFF732FF10
:103DF000044900200860FCF7B7F9002010BD00005E
:103E000020ED00E00C0100202DE9FF5F8346DDE995
:103E10000E87994616468A469000FFF773FC050008
:103E20001AD05420FFF76EFC040012D02563002145
:103E3000CDE90241CDE900874B463246514658460E
:103E4000FFF77EFB2046FFF7A5FA012004B0BDE88E
:103E5000F09F2846FFF7DEFE4FF0FF30F6E7000048
:103E60002DE9F0411F4690460D4604460126FFF716
:103E7000B9FE0FB1E06C386094F85000022184F86C
:103E80005010B8F1050F0ED2DFE808F00D03060C54
:103E90000A00E16C294301E0E16C491CE16402E0A5
:103EA000022803D0E564012802D020E000261EE0AD
:103EB000201DFFF7DFFC104DE06A01212A698140D7
:103EC000114329610D4900EB800001EB8000211DA9
:103ED000FFF77CFEE06A2968C96A884207D9084969
:103EE0004FF080500860BFF34F8FBFF36F8FFFF725
:103EF00087FE3046BDE8F081D00000201802002087
:103F000004ED00E02DE9F041294F0026386B40B167
:103F1000B869401CB861F86900B101263046BDE8B7
:103F2000F081FD686D1CFD6008D1786BB96B796319
:103F3000B863386A401C3862FFF764FBB86ADFF880
:103F40007480854209D3786B006880B1786BC06853
:103F5000C468606885420DD2B8623868C06A00EBF8
:103F6000800158F821000128D5D90126D3E74FF068
:103F7000FF30F1E7201DFFF77DFCA06A18B104F1C6
:103F80001800FFF777FCE06A01213A69814011438C
:103F9000396100EB800108EB8100211DFFF716FE5F
:103FA000E06A3968C96A8842CDD30126CBE70000B0
:103FB000D0000020180200202DE9F04700242746F9
:103FC000FFF710FE254D286B401E2863286BE8BBC9
:103FD000A86823490126C8B3A1F18C098846D8F8FE
:103FE0000010E9B1D8F80C00C46804F11800FFF71C
:103FF00041FC201DFFF73EFCE06A2A6906FA00F149
:104000001143296100EB800109EB8100211DFFF7BD
:10401000DDFDE06A2968C96A8842E0D3EE61DEE727
:104020000CB1FFF7EFFAAC693CB1FFF76BFF00B1E1
:10403000EE61641EF9D10020A861E86930B1094938
:10404000012738070860BFF34F8F00E001E0BFF39E
:104050006F8FFFF7D5FD3846BDE8F087D000002010
:10406000A402002004ED00E04FBB610567ACDD3F1A
:10407000182D4454FB21E93F9BF681D20B73EF3F8F
:10408000182D4454FB21F93FE2652F227F2B7A3C07
:10409000075C143326A6813CBDCBF07A8807703CC0
:1040A000075C143326A6913CC4EB98999999C9BF33
:1040B000711623FEC671BCBF6D9A74AFF2B0B3BF68
:1040C0009AFDDE522DDEADBF2F6C6A2C44B4A2BF28
:1040D0000D5555555555D53FFF8300922449C23F94
:1040E0006E204CC5CD45B73F513DD0A0660DB13FC8
:1040F000EB0D76244B7BA93F11DA22E33AAD903FDA
:1041000000000000000000005B7631355D5B74321A
:104110005DB3F5CABCBBAFCDEAB3C90041542B5166
:104120004D545055423D302C312C312C302C09222D
:104130002F7379732F68696A333659734247367023
:104140002F424332362F7468696E672F6576656E2D
:10415000742F70726F70657274792F706F73742220
:104160002C227B22706172616D73223A097B22548A
:10417000656D70223A252E31662C2248756D6922B4
:104180003A252E31662C2270735F76616C223A25B7
:10419000642C2270756C73655F76616C223A2564BD
:1041A0002C22535474656D70223A252E31667D7D24
:1041B000220D0A00D441000800000020180200006F
:1041C000CC090008F042000818020020E84B00006B
:1041D00084250008012413E10C1B082D0413BD0ED7
:1041E0001B08850413450F42081331101B08BF0438
:1041F0004113D51B1B08CD044113084114086D1E43
:104200001B087D044113511C4C0835360C1BF5125C
:10421000444A130C011013011A140805181B08A1B5
:1042200004135D171B0899041ABD041AE104117CDC
:10423000A24A0428380B02030406070809020406F0
:104240004829106914013C1AAA010130280F415471
:104250002B434750414444523D310D0A0F1825511C
:104260004D544346473D414C49415554482C302C10
:104270002268696A3336597342473670222C2242CB
:104280004332360778223765376162333937306613
:104290006233653261393061323632316565663894
:1042A000376361316434224E1E4F50454E3D4718EE
:1042B0001A696F742D30367A3030636D3632366459
:1042C000303135702E6D7174742E198817687562CF
:1042D0002E616C6979756E63732E636F6D222C315C
:1042E000383833913B4F4E43397C1916F102121086
:04000005080001DD11
:00000001FF
