:020000040800F2
:10000000680400200101000865050008410400089B
:100010006105000849010008B50A00080000000059
:100020000000000000000000000000004D08000873
:100030004D010008000000002908000839090008E7
:100040001B0100081B0100081B0100081B01000820
:100050001B0100081B01000895010008C1010008F0
:100060001B0100081B0100081B0100081B01000800
:100070001B0100081B0100081B0100081B010008F0
:100080001B0100081B0100081B0100081B010008E0
:100090001B0100081B0100081B0100081B010008D0
:1000A0001B0100081B0100081B0100081B010008C0
:1000B0001B0100081B0100081B0100081B010008B0
:1000C0001B0100081B0100081B0100081B010008A0
:1000D0001B0100089D0900081B0100081B01000806
:1000E0001B0100081B0100081B010008DFF80CD0F1
:1000F00000F018F800480047D70A000868040020FC
:100100000648804706480047FEE7FEE7FEE7FEE7B1
:10011000FEE7FEE7FEE7FEE7FEE7FEE73D09000833
:10012000ED000008064C074D06E0E06840F00103D2
:1001300094E8070098471034AC42F6D3FFF7DAFF93
:10014000E80A0008080B000800BFFEE7704700B58A
:10015000034603E04FF47A7000F005F8181EA3F18F
:100160000103F7D100BD00EBC001C9004FF0E02250
:100170005161002191610521116100BF4FF0E02123
:10018000096901F480310029F8D004214FF0E02200
:100190001161704710B50121074800F036F948B9E0
:1001A0000121064800F06EF96420FFF7D0FF01201E
:1001B00000F01CF810BD000000080140000C0140D8
:1001C00010B5022000F018F848B10221064800F0EE
:1001D00059F96420FFF7BBFF022000F007F8022165
:1001E000014800F047F910BD000C014001490860CA
:1001F0007047000014040140014600200022074B14
:100200001B6803EA0102054B14331B680B4013B152
:100210000AB1012000E00020704700000004014006
:10022000002123498279002A3AD00A4612680368DD
:100230009A430B461A600A1D126803689A430B1D05
:100240001A60027911440A6803681A430A60184A5E
:100250000832126803689A43154B08331A601A1D56
:10026000126803689A43124B0C331A604279102AC1
:100270000ED11A1F126803681A430D4B08331A6017
:100280001A1D126803681A43094B0C331A600DE0FB
:100290000749427911440A6803681A430A6005E075
:1002A000027911440A6803689A430A6070470000A3
:1002B0000004014030B500228B071C0F0F2303FA06
:1002C00004F20B4B8C1053F824309343084C8D10E0
:1002D00044F8253023468C1053F824308C07240F23
:1002E00000FA04F42343024C8D1044F8253030BD4D
:1002F000080001402DE9F0410246002500260020BB
:1003000000230024002791F803C00CF00F0591F89A
:1003100003C00CF0100CBCF1000F03D091F802C028
:100320004CEA050591F800C0BCF1000F31D014680B
:1003300000202BE04FF0010C0CFA00F3B1F800C0E4
:100340000CEA03069E4220D183004FF00F0C0CFAFA
:1003500003F7BC4305FA03FC4CEA040491F803C01C
:10036000BCF1280F06D14FF0010C0CFA00FCC2F8CA
:1003700014C00AE091F803C0BCF1480F05D14FF05A
:10038000010C0CFA00FCC2F810C0401C0828D1D3A4
:100390001460B1F800C0BCF1FF0F34DD54680020D8
:1003A0002EE000F1080C4FF0010808FA0CF3B1F848
:1003B00000C00CEA03069E4221D183004FF00F0CCF
:1003C0000CFA03F7BC4305FA03FC4CEA040491F869
:1003D00003C0BCF1280F05D100F1080C08FA0CF895
:1003E000C2F8148091F803C0BCF1480F07D100F1A6
:1003F000080C4FF0010808FA0CF8C2F81080401CF5
:100400000828CED35460BDE8F081024600209368EE
:100410000B400BB1012000E0002070470246002095
:10042000D3680B400BB1012000E000207047416110
:100430007047016170470AB1016100E04161704796
:1004400000BFFEE708B50121082000F0EFF91020F9
:100450008DF803000320ADF800008DF80200694616
:100460000348FFF747FF03210148FFF7E2FF08BDFC
:10047000000C014070B504460D4629462046FFF7A2
:10048000D8FF70BD70B504460D4629462046FFF7DB
:10049000C5FF012804D129462046FFF7C8FF03E025
:1004A00029462046FFF7C5FF70BD00001FB501219A
:1004B000042000F0BBF90121084600F0B7F94820FC
:1004C0008DF80F000320ADF80C008DF80E0003A985
:1004D0002248FFF70FFF4FF4A06000F07DF80021E5
:1004E0000846FFF7E7FE012001908DF80A00002082
:1004F0008DF808000C208DF8090001A8FFF790FE88
:1005000001210020FFF7D6FE0220019001208DF886
:100510000A0000208DF808000C208DF8090001A8C1
:10052000FFF77EFE06208DF8000001208DF8030005
:100530008DF801008DF80200684600F015F80720DC
:100540008DF8000001208DF803008DF801000220D5
:100550008DF80200684600F007F81FBD0008014052
:1005600000BFFEE77047000070B5002100230F2296
:10057000C47804B3154C246804F4E064C4F5E06462
:10058000210AC1F10403CA40447804FA03F18478D3
:100590001440214309010E4C0678A155047804F05B
:1005A0001F050124AC4005786D11AD0005F1E02573
:1005B000C5F8004109E0047804F01F050124AC40AF
:1005C000044D0678761145F8264070BD0CED00E02C
:1005D00000E400E080E100E002490143024A1160CA
:1005E000704700000000FA050CED00E070B5002433
:1005F0000EE00021204600F0E6F8002504E000208F
:1006000000F002F9681CC5B2802DF8DB601CC4B292
:10061000082CEEDB70BD000008B50121082000F0B9
:1006200005F914208DF8030003208DF802004FF423
:100630008070ADF8000069460A48FFF75BFE4FF492
:100640000070ADF8000069460648FFF753FE01222E
:1006500011020448FFF7EFFE012251020148FFF7A3
:10066000EAFE08BD000C014070B50546002415E007
:100670008020204100EA05024FF400710E48FFF788
:10068000DAFE012211020C48FFF7D5FE00224FF4DA
:1006900080710948FFF7CFFE601CC4B2082CE7DB6D
:1006A000012211020448FFF7C6FE00224FF48071B8
:1006B0000148FFF7C0FE70BD000C014010B50122DB
:1006C00051020A48FFF7B7FE012211020748FFF75F
:1006D000B2FE00224FF400710448FFF7ACFE002286
:1006E0004FF480710148FFF7A6FE10BD000C0140D9
:1006F00010B500224FF400710648FFF79CFE01225E
:1007000011020448FFF797FE012251020148FFF74A
:1007100092FE10BD000C014070B5002406E00025DB
:1007200000E06D1CB5F57A7FFBD3641CB4F57A7FCD
:10073000F5D3FFF771FFAE2000F056F8D52000F09A
:1007400053F8802000F050F8A82000F04DF83F202A
:1007500000F04AF8D32000F047F8002000F044F8F9
:10076000402000F041F8A12000F03EF8C82000F041
:100770003BF8DA2000F038F8122000F035F881203C
:1007800000F032F8CF2000F02FF8D92000F02CF83C
:10079000F12000F029F8DB2000F026F8302000F0EE
:1007A00023F8A42000F020F8A62000F01DF88D20EA
:1007B00000F01AF8142000F017F8AF2000F014F839
:1007C000FFF714FF70BD70B505460C4645F0B0004C
:1007D00000F00AF8102141EA141000F005F804F0C6
:1007E0000F0000F001F870BD10B50446FFF766FF7A
:1007F0007820FFF739FF0020FFF736FF2046FFF78C
:1008000033FFFFF775FF10BD10B50446FFF756FF25
:100810007820FFF729FF4020FFF726FF2046FFF74B
:1008200023FFFFF765FF10BD7047000029B1064A9E
:1008300092690243044B9A6104E0034A926982433D
:10084000014B9A617047000000100240704710B5DC
:1008500000F002F810BD00000CB5002001900090DF
:100860003348006840F480303149086000BF3048A8
:10087000006800F4003000900198401C019000983E
:1008800018B90198B0F5A06FF1D12948006800F4BB
:10089000003010B10120009001E00020009000988D
:1008A000012843D12348006840F010002149086026
:1008B0000846006820F0030008600846006840F021
:1008C000020008601A4840681949486008464068B4
:1008D00048600846406840F48060486008464068C8
:1008E00020F47C1048600846406840F4E8104860F6
:1008F0000846006840F08070086000BF0C4800683F
:1009000000F000700028F9D00948406820F003008A
:10091000074948600846406840F00200486000BF50
:100920000348406800F00C000828F9D10CBD000015
:1009300000100240002002407047000010B513482C
:10094000006840F0010011490860084640681049FD
:1009500008400E494860084600680E4908400B49A7
:1009600008600846006820F4802008600846406857
:1009700020F4FE0048604FF41F008860FFF767FF17
:100980004FF000600449086010BD000000100240F4
:100990000000FFF8FFFFF6FE08ED00E010B540F2A2
:1009A0002551204800F057F8012839D11D4800F0A2
:1009B0007CF8C4B21C48007840B9402C2AD10120F0
:1009C0001949087000201949087023E0164800787A
:1009D00001280FD10D2C03D102201349087019E012
:1009E000134812490978445410480078401C0F49B4
:1009F00008700FE00C48007802280BD10A2C09D1AE
:100A00000020094908700A49084A127888540120D0
:100A10000849087040F22551024800F00DF800BF67
:100A200010BD00000038014001000020020000203D
:100A3000040000200000002010B50022002340F632
:100A40006A14A14200D100BF0A1201249440A3B24B
:100A5000DC43048010BD70B502460024002300254D
:100A6000002040F66A16B14200D100BFC1F3421522
:100A700001F01F03012606FA03F3012D02D1968926
:100A8000334006E0022D02D1168A334001E0968AF7
:100A900033400C12012606FA04F41688344013B1D0
:100AA0000CB1012000E0002070BD01468888C0F331
:100AB0000800704700BFFEE702E008C8121F08C127
:100AC000002AFAD170477047002001E001C1121FCF
:100AD000002AFBD17047FFF71FFEFFF7B3FCFFF7BB
:100AE000E5FC00BFFEE70000080B00080000002046
:100AF00004000000B80A00080C0B000804000020E5
:0C0B000064040000C80A000800000000A7
:04000005080000ED02
:00000001FF
